{
  "contractName": "CalculatorV6",
  "abi": [
    {
      "constant": false,
      "inputs": [
        {
          "name": "amount",
          "type": "uint256"
        }
      ],
      "name": "increment",
      "outputs": [
        {
          "name": "",
          "type": "bool"
        }
      ],
      "payable": false,
      "stateMutability": "nonpayable",
      "type": "function"
    },
    {
      "constant": true,
      "inputs": [],
      "name": "getCount",
      "outputs": [
        {
          "name": "",
          "type": "uint256"
        }
      ],
      "payable": false,
      "stateMutability": "view",
      "type": "function"
    },
    {
      "inputs": [
        {
          "name": "value",
          "type": "uint256"
        }
      ],
      "payable": false,
      "stateMutability": "nonpayable",
      "type": "constructor"
    },
    {
      "constant": false,
      "inputs": [
        {
          "name": "amount",
          "type": "uint256"
        }
      ],
      "name": "decrement",
      "outputs": [
        {
          "name": "",
          "type": "bool"
        }
      ],
      "payable": false,
      "stateMutability": "nonpayable",
      "type": "function"
    }
  ],
  "bytecode": "0x608060405234801561001057600080fd5b506040516020806107d283398101806040528101908080519060200190929190505050806000809054906101000a900473ffffffffffffffffffffffffffffffffffffffff1673ffffffffffffffffffffffffffffffffffffffff1663e2a4853a826040518263ffffffff167c010000000000000000000000000000000000000000000000000000000002815260040180807f636f756e74000000000000000000000000000000000000000000000000000000815250602001828152602001915050600060405180830381600087803b1580156100ec57600080fd5b505af1158015610100573d6000803e3d6000fd5b5050505050506106bd806101156000396000f300608060405260043610610057576000357c0100000000000000000000000000000000000000000000000000000000900463ffffffff1680633a9ebefd1461005c5780637cf5dab0146100a1578063a87d942c146100e6575b600080fd5b34801561006857600080fd5b5061008760048036038101908080359060200190929190505050610111565b604051808215151515815260200191505060405180910390f35b3480156100ad57600080fd5b506100cc60048036038101908080359060200190929190505050610358565b604051808215151515815260200191505060405180910390f35b3480156100f257600080fd5b506100fb61059f565b6040518082815260200191505060405180910390f35b6000806000809054906101000a900473ffffffffffffffffffffffffffffffffffffffff1673ffffffffffffffffffffffffffffffffffffffff1663bd02d0f56040518163ffffffff167c010000000000000000000000000000000000000000000000000000000002815260040180807f636f756e740000000000000000000000000000000000000000000000000000008152506020019050602060405180830381600087803b1580156101c457600080fd5b505af11580156101d8573d6000803e3d6000fd5b505050506040513d60208110156101ee57600080fd5b81019080805190602001909291905050509050828110151515610279576040517f08c379a000000000000000000000000000000000000000000000000000000000815260040180806020018281038252601c8152602001807f416d6f756e742069732067726561746572207468656e20636f756e740000000081525060200191505060405180910390fd5b82810390506000809054906101000a900473ffffffffffffffffffffffffffffffffffffffff1673ffffffffffffffffffffffffffffffffffffffff1663e2a4853a826040518263ffffffff167c010000000000000000000000000000000000000000000000000000000002815260040180807f636f756e74000000000000000000000000000000000000000000000000000000815250602001828152602001915050600060405180830381600087803b15801561033657600080fd5b505af115801561034a573d6000803e3d6000fd5b505050506001915050919050565b6000806000831115156103d3576040517f08c379a00000000000000000000000000000000000000000000000000000000081526004018080602001828103825260178152602001807f616d6f756e74206d75737420626520706f73697469766500000000000000000081525060200191505060405180910390fd5b6000809054906101000a900473ffffffffffffffffffffffffffffffffffffffff1673ffffffffffffffffffffffffffffffffffffffff1663bd02d0f56040518163ffffffff167c010000000000000000000000000000000000000000000000000000000002815260040180807f636f756e740000000000000000000000000000000000000000000000000000008152506020019050602060405180830381600087803b15801561048357600080fd5b505af1158015610497573d6000803e3d6000fd5b505050506040513d60208110156104ad57600080fd5b8101908080519060200190929190505050905082810190506000809054906101000a900473ffffffffffffffffffffffffffffffffffffffff1673ffffffffffffffffffffffffffffffffffffffff1663e2a4853a826040518263ffffffff167c010000000000000000000000000000000000000000000000000000000002815260040180807f636f756e74000000000000000000000000000000000000000000000000000000815250602001828152602001915050600060405180830381600087803b15801561057d57600080fd5b505af1158015610591573d6000803e3d6000fd5b505050506001915050919050565b60008060009054906101000a900473ffffffffffffffffffffffffffffffffffffffff1673ffffffffffffffffffffffffffffffffffffffff1663bd02d0f56040518163ffffffff167c010000000000000000000000000000000000000000000000000000000002815260040180807f636f756e740000000000000000000000000000000000000000000000000000008152506020019050602060405180830381600087803b15801561065157600080fd5b505af1158015610665573d6000803e3d6000fd5b505050506040513d602081101561067b57600080fd5b81019080805190602001909291905050509050905600a165627a7a7230582042e65035d59029a2e8575b26d1e98665c8f62fefe0a5398e62ed77ba910658fd0029",
  "source": "pragma solidity ^0.4.23;\n\nimport \"./calculator5.sol\";\n\ncontract CalculatorV6 is CalculatorV5 {\n\n\n    constructor(uint256 value) CalculatorV5(value) public {}\n\n    function decrement(uint256 amount)\n        external\n        returns (bool)\n    {\n        uint256 _count = _storage.getUint(\"count\"); \n        require(_count >= amount, \"Amount is greater then count\");\n        _count = _count - amount;\n         _storage.setUint(\"count\", _count);\n        return true;\n    }\n    \n}",
  "sourcePath": "/Users/dennismacpro/Ascension/Solidity-Proxy-Contracts/proxy-contracts/contracts/misc/calculator6.sol",
  "compiler": {
    "name": "solc",
    "version": "0.4.23+commit.124ca40d.Emscripten.clang"
  },
  "schemaVersion": "3.0.2",
  "updatedAt": "2019-03-24T20:28:41.650Z",
  "devdoc": {
    "methods": {}
  },
  "userdoc": {
    "methods": {}
  }
}