{
  "contractName": "CalcLib",
  "abi": [
    {
      "anonymous": false,
      "inputs": [
        {
          "indexed": true,
          "name": "value",
          "type": "uint256"
        },
        {
          "indexed": true,
          "name": "amount",
          "type": "uint256"
        }
      ],
      "name": "Incremented",
      "type": "event"
    },
    {
      "constant": false,
      "inputs": [
        {
          "name": "self",
          "type": "CalcLib.CalculatorStorage storage"
        },
        {
          "name": "value",
          "type": "uint256"
        }
      ],
      "name": "init",
      "outputs": [],
      "payable": false,
      "stateMutability": "nonpayable",
      "type": "function"
    },
    {
      "constant": false,
      "inputs": [
        {
          "name": "self",
          "type": "CalcLib.CalculatorStorage storage"
        },
        {
          "name": "amount",
          "type": "uint256"
        }
      ],
      "name": "increment",
      "outputs": [
        {
          "name": "",
          "type": "bool"
        }
      ],
      "payable": false,
      "stateMutability": "nonpayable",
      "type": "function"
    },
    {
      "constant": true,
      "inputs": [
        {
          "name": "self",
          "type": "CalcLib.CalculatorStorage storage"
        }
      ],
      "name": "getCount",
      "outputs": [
        {
          "name": "",
          "type": "uint256"
        }
      ],
      "payable": false,
      "stateMutability": "view",
      "type": "function"
    }
  ],
  "bytecode": "0x6102b0610030600b82828239805160001a6073146000811461002057610022565bfe5b5030600052607381538281f300730000000000000000000000000000000000000000301460806040526004361061006e576000357c0100000000000000000000000000000000000000000000000000000000900463ffffffff1680630bc5979614610073578063401e580a146100aa578063e84431cd146100de575b600080fd5b81801561007f57600080fd5b506100a8600480360381019080803590602001909291908035906020019092919050505061012d565b005b6100c8600480360381019080803590602001909291905050506101b2565b6040518082815260200191505060405180910390f35b8180156100ea57600080fd5b5061011360048036038101908080359060200190929190803590602001909291905050506101c0565b604051808215151515815260200191505060405180910390f35b6000811115156101a5576040517f08c379a00000000000000000000000000000000000000000000000000000000081526004018080602001828103825260168152602001807f76616c7565206d75737420626520706f7369746976650000000000000000000081525060200191505060405180910390fd5b8082600001819055505050565b600081600001549050919050565b60008082111515610239576040517f08c379a00000000000000000000000000000000000000000000000000000000081526004018080602001828103825260178152602001807f616d6f756e74206d75737420626520706f73697469766500000000000000000081525060200191505060405180910390fd5b8183600001540183600001819055508183600001547f230c08f549f5f9e591e87490c6c26b3715ba3bdbe74477c4ec927b160763f76760405160405180910390a360019050929150505600a165627a7a723058200aac9d2100511960c5b7c018390911315038239effb8bf5cf961adfc4a50d1450029",
  "source": "pragma solidity ^0.4.23;\n\nlibrary CalcLib {\n    event Incremented(uint256 indexed value, uint256 indexed amount);\n\n    struct CalculatorStorage {\n        uint256 value;\n    }\n\n    function init(CalculatorStorage storage self, uint256 value)\n        public \n    {\n        require(value > 0, \"value must be positive\");\n        self.value = value;\n    }\n\n    function increment(CalculatorStorage storage self, uint256 amount)\n        public\n        returns (bool)\n    {\n        require(amount > 0, \"amount must be positive\");\n        self.value = self.value + amount;\n        emit Incremented(self.value,amount);\n        return true;\n    }\n\n    function getCount(CalculatorStorage storage self)\n        external\n        view\n        returns(uint256)\n    {\n        return self.value;\n    }\n}",
  "sourcePath": "/Users/dennismacpro/Ascension/Solidity-Proxy-Contracts/proxy-contracts/contracts/misc/CalcLib.sol",
  "compiler": {
    "name": "solc",
    "version": "0.4.23+commit.124ca40d.Emscripten.clang"
  },
  "schemaVersion": "3.0.2",
  "updatedAt": "2019-03-17T17:43:47.435Z",
  "devdoc": {
    "methods": {}
  },
  "userdoc": {
    "methods": {}
  }
}