{
  "contractName": "CalculatorV3",
  "abi": [
    {
      "inputs": [
        {
          "name": "count",
          "type": "uint256"
        }
      ],
      "payable": false,
      "stateMutability": "nonpayable",
      "type": "constructor"
    },
    {
      "constant": false,
      "inputs": [
        {
          "name": "amount",
          "type": "uint256"
        }
      ],
      "name": "increment",
      "outputs": [
        {
          "name": "",
          "type": "bool"
        }
      ],
      "payable": false,
      "stateMutability": "nonpayable",
      "type": "function"
    },
    {
      "constant": true,
      "inputs": [],
      "name": "getCount",
      "outputs": [
        {
          "name": "",
          "type": "uint256"
        }
      ],
      "payable": false,
      "stateMutability": "view",
      "type": "function"
    }
  ],
  "bytecode": "0x608060405234801561001057600080fd5b5060405160208061032883398101806040528101908080519060200190929190505050600173__CalcLib_______________________________630bc597969091836040518363ffffffff167c0100000000000000000000000000000000000000000000000000000000028152600401808381526020018281526020019250505060006040518083038186803b1580156100a957600080fd5b505af41580156100bd573d6000803e3d6000fd5b5050505050610257806100d16000396000f30060806040526004361061004c576000357c0100000000000000000000000000000000000000000000000000000000900463ffffffff1680637cf5dab014610051578063a87d942c14610096575b600080fd5b34801561005d57600080fd5b5061007c600480360381019080803590602001909291905050506100c1565b604051808215151515815260200191505060405180910390f35b3480156100a257600080fd5b506100ab61017b565b6040518082815260200191505060405180910390f35b6000600173__CalcLib_______________________________63e84431cd9091846040518363ffffffff167c0100000000000000000000000000000000000000000000000000000000028152600401808381526020018281526020019250505060206040518083038186803b15801561013957600080fd5b505af415801561014d573d6000803e3d6000fd5b505050506040513d602081101561016357600080fd5b81019080805190602001909291905050509050919050565b6000600173__CalcLib_______________________________63401e580a90916040518263ffffffff167c01000000000000000000000000000000000000000000000000000000000281526004018082815260200191505060206040518083038186803b1580156101eb57600080fd5b505af41580156101ff573d6000803e3d6000fd5b505050506040513d602081101561021557600080fd5b81019080805190602001909291905050509050905600a165627a7a7230582048b752485441176f5e60683e36ff11dce1ba0beea84e0ac63f590c975970d0e10029",
  "deployedBytecode": "0x60806040526004361061004c576000357c0100000000000000000000000000000000000000000000000000000000900463ffffffff1680637cf5dab014610051578063a87d942c14610096575b600080fd5b34801561005d57600080fd5b5061007c600480360381019080803590602001909291905050506100c1565b604051808215151515815260200191505060405180910390f35b3480156100a257600080fd5b506100ab61017b565b6040518082815260200191505060405180910390f35b6000600173__CalcLib_______________________________63e84431cd9091846040518363ffffffff167c0100000000000000000000000000000000000000000000000000000000028152600401808381526020018281526020019250505060206040518083038186803b15801561013957600080fd5b505af415801561014d573d6000803e3d6000fd5b505050506040513d602081101561016357600080fd5b81019080805190602001909291905050509050919050565b6000600173__CalcLib_______________________________63401e580a90916040518263ffffffff167c01000000000000000000000000000000000000000000000000000000000281526004018082815260200191505060206040518083038186803b1580156101eb57600080fd5b505af41580156101ff573d6000803e3d6000fd5b505050506040513d602081101561021557600080fd5b81019080805190602001909291905050509050905600a165627a7a7230582048b752485441176f5e60683e36ff11dce1ba0beea84e0ac63f590c975970d0e10029",
  "source": "pragma solidity ^0.4.23;\n\nimport \"./CalcLib.sol\";\nimport \"../proxy/proxy.data.sol\";\n\ncontract CalculatorV3 is ProxyData {\n\n    using CalcLib for CalcLib.CalculatorStorage;\n\n    CalcLib.CalculatorStorage internal self;    \n\n    constructor(uint256 count) public {\n        self.init(count);\n    }\n\n    function increment(uint256 amount)\n        public\n        returns (bool)\n    {\n        return self.increment(amount);        \n    }\n\n    function getCount()\n        external\n        view\n        returns(uint256)\n    {\n        return self.getCount();\n    }  \n}",
  "sourcePath": "/Users/dennismacpro/Ascension/Solidity-Proxy-Contracts/proxy-contracts/contracts/misc/calculator3.sol",
  "compiler": {
    "name": "solc",
    "version": "0.4.23+commit.124ca40d.Emscripten.clang"
  },
  "schemaVersion": "3.0.2",
  "updatedAt": "2019-03-24T20:28:41.662Z",
  "devdoc": {
    "methods": {}
  },
  "userdoc": {
    "methods": {}
  }
}