{
  "contractName": "CalculatorV2",
  "abi": [
    {
      "constant": false,
      "inputs": [
        {
          "name": "amount",
          "type": "uint256"
        }
      ],
      "name": "increment",
      "outputs": [
        {
          "name": "",
          "type": "bool"
        }
      ],
      "payable": false,
      "stateMutability": "nonpayable",
      "type": "function"
    },
    {
      "constant": true,
      "inputs": [],
      "name": "getCount",
      "outputs": [
        {
          "name": "",
          "type": "uint256"
        }
      ],
      "payable": false,
      "stateMutability": "view",
      "type": "function"
    },
    {
      "inputs": [
        {
          "name": "value",
          "type": "uint256"
        }
      ],
      "payable": false,
      "stateMutability": "nonpayable",
      "type": "constructor"
    },
    {
      "constant": false,
      "inputs": [
        {
          "name": "amount",
          "type": "uint256"
        }
      ],
      "name": "decrement",
      "outputs": [
        {
          "name": "",
          "type": "bool"
        }
      ],
      "payable": false,
      "stateMutability": "nonpayable",
      "type": "function"
    }
  ],
  "bytecode": "0x608060405234801561001057600080fd5b506040516020806102b083398101806040528101908080519060200190929190505050808060018190555050506102648061004c6000396000f300608060405260043610610057576000357c0100000000000000000000000000000000000000000000000000000000900463ffffffff1680633a9ebefd1461005c5780637cf5dab0146100a1578063a87d942c146100e6575b600080fd5b34801561006857600080fd5b5061008760048036038101908080359060200190929190505050610111565b604051808215151515815260200191505060405180910390f35b3480156100ad57600080fd5b506100cc600480360381019080803590602001909291905050506101a1565b604051808215151515815260200191505060405180910390f35b3480156100f257600080fd5b506100fb61022e565b6040518082815260200191505060405180910390f35b6000816001541015151561018d576040517f08c379a000000000000000000000000000000000000000000000000000000000815260040180806020018281038252601c8152602001807f416d6f756e742069732067726561746572207468656e20636f756e740000000081525060200191505060405180910390fd5b816001540360018190555060019050919050565b6000808211151561021a576040517f08c379a00000000000000000000000000000000000000000000000000000000081526004018080602001828103825260178152602001807f616d6f756e74206d75737420626520706f73697469766500000000000000000081525060200191505060405180910390fd5b816001540160018190555060019050919050565b60006001549050905600a165627a7a72305820020ebff0d1410b1323540fa2daf5948aae30d88de409f842a09696626b26e65b0029",
  "source": "pragma solidity ^0.4.23;\n\nimport \"./calcuator.sol\";\n\ncontract CalculatorV2 is Calculator {\n\n    constructor(uint256 value) Calculator(value) public {}\n\n    function decrement(uint256 amount)\n        external\n        returns (bool)\n    {\n        require(_count >= amount, \"Amount is greater then count\");\n        _count = _count - amount;\n        return true;\n    }\n}",
  "sourcePath": "/Users/dennismacpro/Ascension/Solidity-Proxy-Contracts/proxy-contracts/contracts/misc/calculator2.sol",
  "compiler": {
    "name": "solc",
    "version": "0.4.23+commit.124ca40d.Emscripten.clang"
  },
  "schemaVersion": "3.0.2",
  "updatedAt": "2019-03-24T20:28:41.661Z",
  "devdoc": {
    "methods": {}
  },
  "userdoc": {
    "methods": {}
  }
}