{
  "contractName": "Calculator",
  "abi": [
    {
      "inputs": [
        {
          "name": "count",
          "type": "uint256"
        }
      ],
      "payable": false,
      "stateMutability": "nonpayable",
      "type": "constructor"
    },
    {
      "constant": false,
      "inputs": [
        {
          "name": "amount",
          "type": "uint256"
        }
      ],
      "name": "increment",
      "outputs": [
        {
          "name": "",
          "type": "bool"
        }
      ],
      "payable": false,
      "stateMutability": "nonpayable",
      "type": "function"
    },
    {
      "constant": true,
      "inputs": [],
      "name": "getCount",
      "outputs": [
        {
          "name": "",
          "type": "uint256"
        }
      ],
      "payable": false,
      "stateMutability": "view",
      "type": "function"
    }
  ],
  "bytecode": "0x608060405234801561001057600080fd5b506040516020806101ce8339810180604052810190808051906020019092919050505080600181905550506101848061004a6000396000f30060806040526004361061004c576000357c0100000000000000000000000000000000000000000000000000000000900463ffffffff1680637cf5dab014610051578063a87d942c14610096575b600080fd5b34801561005d57600080fd5b5061007c600480360381019080803590602001909291905050506100c1565b604051808215151515815260200191505060405180910390f35b3480156100a257600080fd5b506100ab61014e565b6040518082815260200191505060405180910390f35b6000808211151561013a576040517f08c379a00000000000000000000000000000000000000000000000000000000081526004018080602001828103825260178152602001807f616d6f756e74206d75737420626520706f73697469766500000000000000000081525060200191505060405180910390fd5b816001540160018190555060019050919050565b60006001549050905600a165627a7a723058200b3add766d0265ff205449861cf96ecd647c1e515fb37c9d43f3b5b8578da9370029",
  "source": "pragma solidity ^0.4.23;\n\nimport \"../proxy/proxy.data.sol\";\n\ncontract Calculator is ProxyData {\n    uint256 internal _count;\n\n    constructor(uint256 count)public {\n        _count = count;\n    }\n\n    function increment(uint256 amount)\n        public\n        returns (bool)\n    {\n        require(amount > 0, \"amount must be positive\");\n        _count = _count + amount;\n        return true;\n    }\n\n    function getCount()\n        external\n        view\n        returns(uint256)\n    {\n        return _count;\n    }\n}",
  "sourcePath": "/Users/dennismacpro/Ascension/Solidity-Proxy-Contracts/proxy-contracts/contracts/misc/calcuator.sol",
  "compiler": {
    "name": "solc",
    "version": "0.4.23+commit.124ca40d.Emscripten.clang"
  },
  "schemaVersion": "3.0.2",
  "updatedAt": "2019-03-24T20:28:41.662Z",
  "devdoc": {
    "methods": {}
  },
  "userdoc": {
    "methods": {}
  }
}