{
  "contractName": "KeyValueStorage",
  "abi": [
    {
      "constant": true,
      "inputs": [
        {
          "name": "key",
          "type": "bytes32"
        }
      ],
      "name": "getAddress",
      "outputs": [
        {
          "name": "",
          "type": "address"
        }
      ],
      "payable": false,
      "stateMutability": "view",
      "type": "function"
    },
    {
      "constant": true,
      "inputs": [
        {
          "name": "key",
          "type": "bytes32"
        }
      ],
      "name": "getUint",
      "outputs": [
        {
          "name": "",
          "type": "uint256"
        }
      ],
      "payable": false,
      "stateMutability": "view",
      "type": "function"
    },
    {
      "constant": true,
      "inputs": [
        {
          "name": "key",
          "type": "bytes32"
        }
      ],
      "name": "getBool",
      "outputs": [
        {
          "name": "",
          "type": "bool"
        }
      ],
      "payable": false,
      "stateMutability": "view",
      "type": "function"
    },
    {
      "constant": false,
      "inputs": [
        {
          "name": "key",
          "type": "bytes32"
        },
        {
          "name": "value",
          "type": "address"
        }
      ],
      "name": "setAddress",
      "outputs": [],
      "payable": false,
      "stateMutability": "nonpayable",
      "type": "function"
    },
    {
      "constant": false,
      "inputs": [
        {
          "name": "key",
          "type": "bytes32"
        },
        {
          "name": "value",
          "type": "uint256"
        }
      ],
      "name": "setUint",
      "outputs": [],
      "payable": false,
      "stateMutability": "nonpayable",
      "type": "function"
    },
    {
      "constant": false,
      "inputs": [
        {
          "name": "key",
          "type": "bytes32"
        },
        {
          "name": "value",
          "type": "bool"
        }
      ],
      "name": "setBool",
      "outputs": [],
      "payable": false,
      "stateMutability": "nonpayable",
      "type": "function"
    }
  ],
  "bytecode": "0x608060405234801561001057600080fd5b50610532806100206000396000f300608060405260043610610078576000357c0100000000000000000000000000000000000000000000000000000000900463ffffffff16806321f8a7211461007d5780637ae1cfca146100ee578063abfdcced14610137578063bd02d0f514610174578063ca446dd9146101b9578063e2a4853a1461020a575b600080fd5b34801561008957600080fd5b506100ac6004803603810190808035600019169060200190929190505050610245565b604051808273ffffffffffffffffffffffffffffffffffffffff1673ffffffffffffffffffffffffffffffffffffffff16815260200191505060405180910390f35b3480156100fa57600080fd5b5061011d60048036038101908080356000191690602001909291905050506102c7565b604051808215151515815260200191505060405180910390f35b34801561014357600080fd5b506101726004803603810190808035600019169060200190929190803515159060200190929190505050610336565b005b34801561018057600080fd5b506101a360048036038101908080356000191690602001909291905050506103aa565b6040518082815260200191505060405180910390f35b3480156101c557600080fd5b506102086004803603810190808035600019169060200190929190803573ffffffffffffffffffffffffffffffffffffffff16906020019092919050505061040b565b005b34801561021657600080fd5b506102436004803603810190808035600019169060200190929190803590602001909291905050506104a6565b005b6000600160003373ffffffffffffffffffffffffffffffffffffffff1673ffffffffffffffffffffffffffffffffffffffff1681526020019081526020016000206000836000191660001916815260200190815260200160002060009054906101000a900473ffffffffffffffffffffffffffffffffffffffff169050919050565b6000600260003373ffffffffffffffffffffffffffffffffffffffff1673ffffffffffffffffffffffffffffffffffffffff1681526020019081526020016000206000836000191660001916815260200190815260200160002060009054906101000a900460ff169050919050565b80600260003373ffffffffffffffffffffffffffffffffffffffff1673ffffffffffffffffffffffffffffffffffffffff1681526020019081526020016000206000846000191660001916815260200190815260200160002060006101000a81548160ff0219169083151502179055505050565b60008060003373ffffffffffffffffffffffffffffffffffffffff1673ffffffffffffffffffffffffffffffffffffffff16815260200190815260200160002060008360001916600019168152602001908152602001600020549050919050565b80600160003373ffffffffffffffffffffffffffffffffffffffff1673ffffffffffffffffffffffffffffffffffffffff1681526020019081526020016000206000846000191660001916815260200190815260200160002060006101000a81548173ffffffffffffffffffffffffffffffffffffffff021916908373ffffffffffffffffffffffffffffffffffffffff1602179055505050565b806000803373ffffffffffffffffffffffffffffffffffffffff1673ffffffffffffffffffffffffffffffffffffffff168152602001908152602001600020600084600019166000191681526020019081526020016000208190555050505600a165627a7a723058208038665f26c9ab6e1b69a697142082d883d6d7bba12b8fc2bee9b72afc324ece0029",
  "source": " pragma solidity ^0.4.23;\n \n \n contract KeyValueStorage {\n\n  mapping(address => mapping(bytes32 => uint256)) _uintStorage;\n  mapping(address => mapping(bytes32 => address)) _addressStorage;\n  mapping(address => mapping(bytes32 => bool)) _boolStorage;\n\n  /**** Get Methods ***********/\n\n  function getAddress(bytes32 key) public view returns (address) {\n      return _addressStorage[msg.sender][key];\n  }\n\n  function getUint(bytes32 key) public view returns (uint) {\n      return _uintStorage[msg.sender][key];\n  }\n\n  function getBool(bytes32 key) public view returns (bool) {\n      return _boolStorage[msg.sender][key];\n  }\n\n  /**** Set Methods ***********/\n\n  function setAddress(bytes32 key, address value) public {\n    _addressStorage[msg.sender][key] = value;\n  }\n\n  function setUint(bytes32 key, uint value) public {\n      _uintStorage[msg.sender][key] = value;\n  }\n\n  function setBool(bytes32 key, bool value) public {\n      _boolStorage[msg.sender][key] = value;\n  }\n\n}",
  "sourcePath": "/Users/dennismacpro/Ascension/Solidity-Proxy-Contracts/proxy-contracts/contracts/storage/keyvalue.storage.sol",
  "compiler": {
    "name": "solc",
    "version": "0.4.23+commit.124ca40d.Emscripten.clang"
  },
  "schemaVersion": "3.0.2",
  "updatedAt": "2019-03-24T20:28:41.651Z",
  "devdoc": {
    "methods": {}
  },
  "userdoc": {
    "methods": {
      "getAddress(bytes32)": {
        "notice": "** Get Methods **********"
      },
      "setAddress(bytes32,address)": {
        "notice": "** Set Methods **********"
      }
    }
  }
}