{
  "contractName": "StorageLibrary",
  "abi": [
    {
      "anonymous": false,
      "inputs": [
        {
          "indexed": false,
          "name": "amountAdded",
          "type": "uint256"
        },
        {
          "indexed": false,
          "name": "newFillAmount",
          "type": "uint256"
        }
      ],
      "name": "FilledStorage",
      "type": "event"
    },
    {
      "anonymous": false,
      "inputs": [
        {
          "indexed": false,
          "name": "amountDrank",
          "type": "uint256"
        },
        {
          "indexed": false,
          "name": "newFillAmount",
          "type": "uint256"
        }
      ],
      "name": "DrankStorage",
      "type": "event"
    },
    {
      "constant": false,
      "inputs": [
        {
          "name": "self",
          "type": "StorageLibrary.StorageInstance storage"
        },
        {
          "name": "_flavor",
          "type": "string"
        },
        {
          "name": "_fillAmount",
          "type": "uint256"
        },
        {
          "name": "_capacity",
          "type": "uint256"
        }
      ],
      "name": "init",
      "outputs": [],
      "payable": false,
      "stateMutability": "nonpayable",
      "type": "function"
    },
    {
      "constant": false,
      "inputs": [
        {
          "name": "self",
          "type": "StorageLibrary.StorageInstance storage"
        },
        {
          "name": "amountToAdd",
          "type": "uint256"
        }
      ],
      "name": "fill",
      "outputs": [],
      "payable": false,
      "stateMutability": "nonpayable",
      "type": "function"
    },
    {
      "constant": false,
      "inputs": [
        {
          "name": "self",
          "type": "StorageLibrary.StorageInstance storage"
        },
        {
          "name": "amountToDrink",
          "type": "uint256"
        }
      ],
      "name": "drink",
      "outputs": [
        {
          "name": "",
          "type": "bytes32"
        }
      ],
      "payable": false,
      "stateMutability": "nonpayable",
      "type": "function"
    },
    {
      "constant": true,
      "inputs": [
        {
          "name": "self",
          "type": "StorageLibrary.StorageInstance storage"
        }
      ],
      "name": "fillAmount",
      "outputs": [
        {
          "name": "",
          "type": "uint256"
        }
      ],
      "payable": false,
      "stateMutability": "view",
      "type": "function"
    }
  ],
  "bytecode": "0x61054e610030600b82828239805160001a6073146000811461002057610022565bfe5b5030600052607381538281f3007300000000000000000000000000000000000000003014608060405260043610610079576000357c0100000000000000000000000000000000000000000000000000000000900463ffffffff1680636bdc913d1461007e57806391a4bb1a146100b5578063f865620b14610108578063ff33ae261461018f575b600080fd5b81801561008a57600080fd5b506100b360048036038101908080359060200190929190803590602001909291905050506101c3565b005b8180156100c157600080fd5b506100ea60048036038101908080359060200190929190803590602001909291905050506102a6565b60405180826000191660001916815260200191505060405180910390f35b81801561011457600080fd5b5061018d60048036038101908080359060200190929190803590602001908201803590602001908080601f01602080910402602001604051908101604052809392919081815260200183838082843782019150505050505091929192908035906020019092919080359060200190929190505050610394565b005b6101ad6004803603810190808035906020019092919050505061046f565b6040518082815260200191505060405180910390f35b60008183600001540190508260000154811180156101e5575082600101548111155b1515610259576040517f08c379a00000000000000000000000000000000000000000000000000000000081526004018080602001828103825260138152602001807f6e6f7420656e6f7567682063617061636974790000000000000000000000000081525060200191505060405180910390fd5b8083600001819055507f5b1444d210869db0180a30a379dddd8f9a6a4a0bb1735cc2c501956b94786fe28282604051808381526020018281526020019250505060405180910390a1505050565b60008082846000015403905083600001548110151561032d576040517f08c379a00000000000000000000000000000000000000000000000000000000081526004018080602001828103825260138152602001807f6e6f7420656e6f75676820746f206472696e6b0000000000000000000000000081525060200191505060405180910390fd5b8084600001819055507f1e320da94635dae3ceb29a0d03de5976d3a56456998a286779f90bce41608b2b8382604051808381526020018281526020019250505060405180910390a18260405180828152602001915050604051809103902091505092915050565b8082111580156103a45750600081115b151561043e576040517f08c379a00000000000000000000000000000000000000000000000000000000081526004018080602001828103825260238152602001807f6e6f7420656e6f75676820636170616369747920666f722066696c6c20616d6f81526020017f756e74000000000000000000000000000000000000000000000000000000000081525060400191505060405180910390fd5b8284600201908051906020019061045692919061047d565b5081846000018190555080846001018190555050505050565b600081600001549050919050565b828054600181600116156101000203166002900490600052602060002090601f016020900481019282601f106104be57805160ff19168380011785556104ec565b828001600101855582156104ec579182015b828111156104eb5782518255916020019190600101906104d0565b5b5090506104f991906104fd565b5090565b61051f91905b8082111561051b576000816000905550600101610503565b5090565b905600a165627a7a72305820fb8d7c173c810dd5f0bc24b225cf8507a6dbddd2fa869adcf8ece754264d1a2f0029",
  "source": "pragma solidity ^0.4.23;\n\n\nlibrary StorageLibrary {\n    event FilledStorage(uint amountAdded, uint newFillAmount);\n    event DrankStorage(uint amountDrank, uint newFillAmount);\n\n    struct StorageInstance {\n        uint fillAmount;\n        uint capacity;\n        string flavor;\n    }\n\n    function init(\n        StorageInstance storage self,\n        string _flavor, uint _fillAmount, uint _capacity\n    ) public {\n        require(_fillAmount <= _capacity && _capacity > 0,\"not enough capacity for fill amount\");\n        self.flavor = _flavor;\n        self.fillAmount = _fillAmount;\n        self.capacity = _capacity;\n    }\n    function fill(StorageInstance storage self, uint amountToAdd) public {\n        uint newAmount = self.fillAmount + amountToAdd;\n        require(newAmount > self.fillAmount && newAmount <= self.capacity,\"not enough capacity\");\n        self.fillAmount = newAmount;\n        emit FilledStorage(amountToAdd, newAmount);\n    }\n\n    function drink(StorageInstance storage self, uint amountToDrink) public returns (bytes32) {\n        uint newAmount = self.fillAmount - amountToDrink;\n        require(newAmount < self.fillAmount,\"not enough to drink\");\n        self.fillAmount = newAmount;\n        emit DrankStorage(amountToDrink, newAmount);\n        // this mess of hashes just here to pad out the bytecode\n        return keccak256(amountToDrink);\n    }\n\n    function fillAmount(StorageInstance storage self) public view returns (uint) {\n        return self.fillAmount;\n    }\n\n    \n   \n}",
  "sourcePath": "/Users/dennismacpro/Ascension/Solidity-Proxy-Contracts/proxy-contracts/contracts/storage.library.sol",
  "compiler": {
    "name": "solc",
    "version": "0.4.23+commit.124ca40d.Emscripten.clang"
  },
  "schemaVersion": "3.0.2",
  "updatedAt": "2019-03-06T01:50:14.049Z",
  "devdoc": {
    "methods": {}
  },
  "userdoc": {
    "methods": {}
  }
}