{
  "contractName": "Storage",
  "abi": [
    {
      "constant": true,
      "inputs": [],
      "name": "capacity",
      "outputs": [
        {
          "name": "",
          "type": "uint256"
        }
      ],
      "payable": false,
      "stateMutability": "view",
      "type": "function"
    },
    {
      "constant": true,
      "inputs": [],
      "name": "fillAmount",
      "outputs": [
        {
          "name": "",
          "type": "uint256"
        }
      ],
      "payable": false,
      "stateMutability": "view",
      "type": "function"
    },
    {
      "constant": true,
      "inputs": [],
      "name": "flavor",
      "outputs": [
        {
          "name": "",
          "type": "string"
        }
      ],
      "payable": false,
      "stateMutability": "view",
      "type": "function"
    },
    {
      "inputs": [
        {
          "name": "_flavor",
          "type": "string"
        },
        {
          "name": "_fillAmount",
          "type": "uint256"
        },
        {
          "name": "_capacity",
          "type": "uint256"
        }
      ],
      "payable": false,
      "stateMutability": "nonpayable",
      "type": "constructor"
    },
    {
      "anonymous": false,
      "inputs": [
        {
          "indexed": false,
          "name": "amountAdded",
          "type": "uint256"
        },
        {
          "indexed": false,
          "name": "newFillAmount",
          "type": "uint256"
        }
      ],
      "name": "FilledStorage",
      "type": "event"
    },
    {
      "anonymous": false,
      "inputs": [
        {
          "indexed": false,
          "name": "amountDrank",
          "type": "uint256"
        },
        {
          "indexed": false,
          "name": "newFillAmount",
          "type": "uint256"
        }
      ],
      "name": "DrankStorage",
      "type": "event"
    },
    {
      "constant": false,
      "inputs": [
        {
          "name": "amountToAdd",
          "type": "uint256"
        }
      ],
      "name": "fill",
      "outputs": [],
      "payable": false,
      "stateMutability": "nonpayable",
      "type": "function"
    },
    {
      "constant": false,
      "inputs": [
        {
          "name": "amountToDrink",
          "type": "uint256"
        }
      ],
      "name": "drink",
      "outputs": [
        {
          "name": "",
          "type": "bytes32"
        }
      ],
      "payable": false,
      "stateMutability": "nonpayable",
      "type": "function"
    }
  ],
  "bytecode": "0x608060405234801561001057600080fd5b5060405161054e38038061054e833981018060405281019080805182019291906020018051906020019092919080519060200190929190505050600473__StorageLibrary________________________63f865620b90918585856040518563ffffffff167c01000000000000000000000000000000000000000000000000000000000281526004018085815260200180602001848152602001838152602001828103825285818151815260200191508051906020019080838360005b838110156100e85780820151818401526020810190506100cd565b50505050905090810190601f1680156101155780820380516001836020036101000a031916815260200191505b509550505050505060006040518083038186803b15801561013557600080fd5b505af4158015610149573d6000803e3d6000fd5b505050505050506103ef8061015f6000396000f30060806040526004361061006d576000357c0100000000000000000000000000000000000000000000000000000000900463ffffffff1680633fda5389146100725780635cfc1a511461009f5780637cb3406f146100ca578063acd00a5c14610113578063f59e4f651461013e575b600080fd5b34801561007e57600080fd5b5061009d600480360381019080803590602001909291905050506101ce565b005b3480156100ab57600080fd5b506100b461025f565b6040518082815260200191505060405180910390f35b3480156100d657600080fd5b506100f560048036038101908080359060200190929190505050610265565b60405180826000191660001916815260200191505060405180910390f35b34801561011f57600080fd5b5061012861031f565b6040518082815260200191505060405180910390f35b34801561014a57600080fd5b50610153610325565b6040518080602001828103825283818151815260200191508051906020019080838360005b83811015610193578082015181840152602081019050610178565b50505050905090810190601f1680156101c05780820380516001836020036101000a031916815260200191505b509250505060405180910390f35b600473__StorageLibrary________________________636bdc913d9091836040518363ffffffff167c0100000000000000000000000000000000000000000000000000000000028152600401808381526020018281526020019250505060006040518083038186803b15801561024457600080fd5b505af4158015610258573d6000803e3d6000fd5b5050505050565b60025481565b6000600473__StorageLibrary________________________6391a4bb1a9091846040518363ffffffff167c0100000000000000000000000000000000000000000000000000000000028152600401808381526020018281526020019250505060206040518083038186803b1580156102dd57600080fd5b505af41580156102f1573d6000803e3d6000fd5b505050506040513d602081101561030757600080fd5b81019080805190602001909291905050509050919050565b60015481565b60038054600181600116156101000203166002900480601f0160208091040260200160405190810160405280929190818152602001828054600181600116156101000203166002900480156103bb5780601f10610390576101008083540402835291602001916103bb565b820191906000526020600020905b81548152906001019060200180831161039e57829003601f168201915b5050505050815600a165627a7a723058207e9fbd5c408f7396ab8e6ec16bd3591b74807cb69e2481bcd5cf3b5f2f0584660029",
  "deployedBytecode": "0x60806040526004361061006d576000357c0100000000000000000000000000000000000000000000000000000000900463ffffffff1680633fda5389146100725780635cfc1a511461009f5780637cb3406f146100ca578063acd00a5c14610113578063f59e4f651461013e575b600080fd5b34801561007e57600080fd5b5061009d600480360381019080803590602001909291905050506101ce565b005b3480156100ab57600080fd5b506100b461025f565b6040518082815260200191505060405180910390f35b3480156100d657600080fd5b506100f560048036038101908080359060200190929190505050610265565b60405180826000191660001916815260200191505060405180910390f35b34801561011f57600080fd5b5061012861031f565b6040518082815260200191505060405180910390f35b34801561014a57600080fd5b50610153610325565b6040518080602001828103825283818151815260200191508051906020019080838360005b83811015610193578082015181840152602081019050610178565b50505050905090810190601f1680156101c05780820380516001836020036101000a031916815260200191505b509250505060405180910390f35b600473__StorageLibrary________________________636bdc913d9091836040518363ffffffff167c0100000000000000000000000000000000000000000000000000000000028152600401808381526020018281526020019250505060006040518083038186803b15801561024457600080fd5b505af4158015610258573d6000803e3d6000fd5b5050505050565b60025481565b6000600473__StorageLibrary________________________6391a4bb1a9091846040518363ffffffff167c0100000000000000000000000000000000000000000000000000000000028152600401808381526020018281526020019250505060206040518083038186803b1580156102dd57600080fd5b505af41580156102f1573d6000803e3d6000fd5b505050506040513d602081101561030757600080fd5b81019080805190602001909291905050509050919050565b60015481565b60038054600181600116156101000203166002900480601f0160208091040260200160405190810160405280929190818152602001828054600181600116156101000203166002900480156103bb5780601f10610390576101008083540402835291602001916103bb565b820191906000526020600020905b81548152906001019060200180831161039e57829003601f168201915b5050505050815600a165627a7a723058207e9fbd5c408f7396ab8e6ec16bd3591b74807cb69e2481bcd5cf3b5f2f0584660029",
  "source": "pragma solidity ^0.4.23;\n\nimport \"./storage.library.sol\";\nimport \"./storage.data.sol\";\nimport \"../proxy/proxy.data.sol\";\n\n\ncontract Storage is StorageData {\n    using StorageLibrary for StorageLibrary.StorageInstance;\n\n    event FilledStorage(uint amountAdded, uint newFillAmount);\n    event DrankStorage(uint amountDrank, uint newFillAmount);\n\n    StorageLibrary.StorageInstance private self;    \n\n    constructor(string _flavor, uint _fillAmount, uint _capacity)\n        public\n    {\n        self.init(_flavor, _fillAmount, _capacity);\n    }\n    function fill(uint amountToAdd) public {\n        return self.fill(amountToAdd);\n    }\n\n    function drink(uint amountToDrink) public returns (bytes32) {\n        return self.drink(amountToDrink);\n    }\n}\n",
  "sourcePath": "/Users/dennismacpro/Ascension/Solidity-Proxy-Contracts/proxy-contracts/contracts/storage/storage.sol",
  "compiler": {
    "name": "solc",
    "version": "0.4.23+commit.124ca40d.Emscripten.clang"
  },
  "schemaVersion": "3.0.2",
  "updatedAt": "2019-03-17T16:19:07.282Z",
  "devdoc": {
    "methods": {}
  },
  "userdoc": {
    "methods": {}
  }
}