{
  "contractName": "Storage",
  "abi": [
    {
      "inputs": [
        {
          "name": "_flavor",
          "type": "string"
        },
        {
          "name": "_fillAmount",
          "type": "uint256"
        },
        {
          "name": "_capacity",
          "type": "uint256"
        }
      ],
      "payable": false,
      "stateMutability": "nonpayable",
      "type": "constructor"
    },
    {
      "anonymous": false,
      "inputs": [
        {
          "indexed": false,
          "name": "amountAdded",
          "type": "uint256"
        },
        {
          "indexed": false,
          "name": "newFillAmount",
          "type": "uint256"
        }
      ],
      "name": "FilledStorage",
      "type": "event"
    },
    {
      "anonymous": false,
      "inputs": [
        {
          "indexed": false,
          "name": "amountDrank",
          "type": "uint256"
        },
        {
          "indexed": false,
          "name": "newFillAmount",
          "type": "uint256"
        }
      ],
      "name": "DrankStorage",
      "type": "event"
    },
    {
      "constant": false,
      "inputs": [
        {
          "name": "amountToAdd",
          "type": "uint256"
        }
      ],
      "name": "fill",
      "outputs": [],
      "payable": false,
      "stateMutability": "nonpayable",
      "type": "function"
    },
    {
      "constant": false,
      "inputs": [
        {
          "name": "amountToDrink",
          "type": "uint256"
        }
      ],
      "name": "drink",
      "outputs": [
        {
          "name": "",
          "type": "bytes32"
        }
      ],
      "payable": false,
      "stateMutability": "nonpayable",
      "type": "function"
    }
  ],
  "bytecode": "0x608060405234801561001057600080fd5b5060405161039d38038061039d833981018060405281019080805182019291906020018051906020019092919080519060200190929190505050600173__StorageLibrary________________________63f865620b90918585856040518563ffffffff167c01000000000000000000000000000000000000000000000000000000000281526004018085815260200180602001848152602001838152602001828103825285818151815260200191508051906020019080838360005b838110156100e85780820151818401526020810190506100cd565b50505050905090810190601f1680156101155780820380516001836020036101000a031916815260200191505b509550505050505060006040518083038186803b15801561013557600080fd5b505af4158015610149573d6000803e3d6000fd5b5050505050505061023e8061015f6000396000f30060806040526004361061004c576000357c0100000000000000000000000000000000000000000000000000000000900463ffffffff1680633fda5389146100515780637cb3406f1461007e575b600080fd5b34801561005d57600080fd5b5061007c600480360381019080803590602001909291905050506100c7565b005b34801561008a57600080fd5b506100a960048036038101908080359060200190929190505050610158565b60405180826000191660001916815260200191505060405180910390f35b600173__StorageLibrary________________________636bdc913d9091836040518363ffffffff167c0100000000000000000000000000000000000000000000000000000000028152600401808381526020018281526020019250505060006040518083038186803b15801561013d57600080fd5b505af4158015610151573d6000803e3d6000fd5b5050505050565b6000600173__StorageLibrary________________________6391a4bb1a9091846040518363ffffffff167c0100000000000000000000000000000000000000000000000000000000028152600401808381526020018281526020019250505060206040518083038186803b1580156101d057600080fd5b505af41580156101e4573d6000803e3d6000fd5b505050506040513d60208110156101fa57600080fd5b810190808051906020019092919050505090509190505600a165627a7a723058200c135054f865110c85ffa7259d8388a23a4367e6dfe19de6455e1a08b18f34c40029",
  "deployedBytecode": "0x60806040526004361061004c576000357c0100000000000000000000000000000000000000000000000000000000900463ffffffff1680633fda5389146100515780637cb3406f1461007e575b600080fd5b34801561005d57600080fd5b5061007c600480360381019080803590602001909291905050506100c7565b005b34801561008a57600080fd5b506100a960048036038101908080359060200190929190505050610158565b60405180826000191660001916815260200191505060405180910390f35b600173__StorageLibrary________________________636bdc913d9091836040518363ffffffff167c0100000000000000000000000000000000000000000000000000000000028152600401808381526020018281526020019250505060006040518083038186803b15801561013d57600080fd5b505af4158015610151573d6000803e3d6000fd5b5050505050565b6000600173__StorageLibrary________________________6391a4bb1a9091846040518363ffffffff167c0100000000000000000000000000000000000000000000000000000000028152600401808381526020018281526020019250505060206040518083038186803b1580156101d057600080fd5b505af41580156101e4573d6000803e3d6000fd5b505050506040513d60208110156101fa57600080fd5b810190808051906020019092919050505090509190505600a165627a7a723058200c135054f865110c85ffa7259d8388a23a4367e6dfe19de6455e1a08b18f34c40029",
  "source": "pragma solidity ^0.4.23;\n\nimport \"./storage.library.sol\";\nimport \"./proxy.data.sol\";\n\n\ncontract Storage is ProxyData {\n    using StorageLibrary for StorageLibrary.StorageInstance;\n\n    event FilledStorage(uint amountAdded, uint newFillAmount);\n    event DrankStorage(uint amountDrank, uint newFillAmount);\n\n    StorageLibrary.StorageInstance private self;    \n\n    constructor(string _flavor, uint _fillAmount, uint _capacity)\n        public\n    {\n        self.init(_flavor, _fillAmount, _capacity);\n    }\n    function fill(uint amountToAdd) public {\n        return self.fill(amountToAdd);\n    }\n\n    function drink(uint amountToDrink) public returns (bytes32) {\n        return self.drink(amountToDrink);\n    }\n}\n",
  "sourcePath": "/Users/dennismacpro/Ascension/Solidity-Proxy-Contracts/proxy-contracts/contracts/storage.sol",
  "compiler": {
    "name": "solc",
    "version": "0.4.23+commit.124ca40d.Emscripten.clang"
  },
  "schemaVersion": "3.0.2",
  "updatedAt": "2019-03-08T00:54:25.560Z",
  "devdoc": {
    "methods": {}
  },
  "userdoc": {
    "methods": {}
  }
}