{
  "contractName": "StorageData",
  "abi": [
    {
      "constant": true,
      "inputs": [],
      "name": "capacity",
      "outputs": [
        {
          "name": "",
          "type": "uint256"
        }
      ],
      "payable": false,
      "stateMutability": "view",
      "type": "function"
    },
    {
      "constant": true,
      "inputs": [],
      "name": "fillAmount",
      "outputs": [
        {
          "name": "",
          "type": "uint256"
        }
      ],
      "payable": false,
      "stateMutability": "view",
      "type": "function"
    },
    {
      "constant": true,
      "inputs": [],
      "name": "flavor",
      "outputs": [
        {
          "name": "",
          "type": "string"
        }
      ],
      "payable": false,
      "stateMutability": "view",
      "type": "function"
    },
    {
      "anonymous": false,
      "inputs": [
        {
          "indexed": false,
          "name": "amountAdded",
          "type": "uint256"
        },
        {
          "indexed": false,
          "name": "newFillAmount",
          "type": "uint256"
        }
      ],
      "name": "FilledStorage",
      "type": "event"
    },
    {
      "anonymous": false,
      "inputs": [
        {
          "indexed": false,
          "name": "amountDrank",
          "type": "uint256"
        },
        {
          "indexed": false,
          "name": "newFillAmount",
          "type": "uint256"
        }
      ],
      "name": "DrankStorage",
      "type": "event"
    }
  ],
  "bytecode": "0x608060405234801561001057600080fd5b50610218806100206000396000f300608060405260043610610057576000357c0100000000000000000000000000000000000000000000000000000000900463ffffffff1680635cfc1a511461005c578063acd00a5c14610087578063f59e4f65146100b2575b600080fd5b34801561006857600080fd5b50610071610142565b6040518082815260200191505060405180910390f35b34801561009357600080fd5b5061009c610148565b6040518082815260200191505060405180910390f35b3480156100be57600080fd5b506100c761014e565b6040518080602001828103825283818151815260200191508051906020019080838360005b838110156101075780820151818401526020810190506100ec565b50505050905090810190601f1680156101345780820380516001836020036101000a031916815260200191505b509250505060405180910390f35b60025481565b60015481565b60038054600181600116156101000203166002900480601f0160208091040260200160405190810160405280929190818152602001828054600181600116156101000203166002900480156101e45780601f106101b9576101008083540402835291602001916101e4565b820191906000526020600020905b8154815290600101906020018083116101c757829003601f168201915b5050505050815600a165627a7a723058203834dc5271b9f2a759329ebc5ad1782e8f56f5be1cc13a9c0934831229bb85e20029",
  "source": "pragma solidity ^0.4.23;\n\nimport \"../proxy/proxy.data.sol\";\n\ncontract StorageData is ProxyData {\n    event FilledStorage(uint amountAdded, uint newFillAmount);\n    event DrankStorage(uint amountDrank, uint newFillAmount);\n\n    uint public fillAmount;\n    uint public capacity;\n    string public flavor;\n\n}\n",
  "sourcePath": "/Users/dennismacpro/Ascension/Solidity-Proxy-Contracts/proxy-contracts/contracts/storage/storage.data.sol",
  "compiler": {
    "name": "solc",
    "version": "0.4.23+commit.124ca40d.Emscripten.clang"
  },
  "schemaVersion": "3.0.2",
  "updatedAt": "2019-03-17T16:19:07.281Z",
  "devdoc": {
    "methods": {}
  },
  "userdoc": {
    "methods": {}
  }
}