{
  "contractName": "StorageProxy",
  "abi": [
    {
      "constant": true,
      "inputs": [],
      "name": "capacity",
      "outputs": [
        {
          "name": "",
          "type": "uint256"
        }
      ],
      "payable": false,
      "stateMutability": "view",
      "type": "function"
    },
    {
      "constant": true,
      "inputs": [],
      "name": "fillAmount",
      "outputs": [
        {
          "name": "",
          "type": "uint256"
        }
      ],
      "payable": false,
      "stateMutability": "view",
      "type": "function"
    },
    {
      "constant": true,
      "inputs": [],
      "name": "flavor",
      "outputs": [
        {
          "name": "",
          "type": "string"
        }
      ],
      "payable": false,
      "stateMutability": "view",
      "type": "function"
    },
    {
      "inputs": [
        {
          "name": "proxied",
          "type": "address"
        },
        {
          "name": "_flavor",
          "type": "string"
        },
        {
          "name": "_fillAmount",
          "type": "uint256"
        },
        {
          "name": "_capacity",
          "type": "uint256"
        }
      ],
      "payable": false,
      "stateMutability": "nonpayable",
      "type": "constructor"
    },
    {
      "payable": true,
      "stateMutability": "payable",
      "type": "fallback"
    },
    {
      "anonymous": false,
      "inputs": [
        {
          "indexed": false,
          "name": "amountAdded",
          "type": "uint256"
        },
        {
          "indexed": false,
          "name": "newFillAmount",
          "type": "uint256"
        }
      ],
      "name": "FilledStorage",
      "type": "event"
    },
    {
      "anonymous": false,
      "inputs": [
        {
          "indexed": false,
          "name": "amountDrank",
          "type": "uint256"
        },
        {
          "indexed": false,
          "name": "newFillAmount",
          "type": "uint256"
        }
      ],
      "name": "DrankStorage",
      "type": "event"
    }
  ],
  "bytecode": "0x608060405234801561001057600080fd5b506040516104573803806104578339810180604052810190808051906020019092919080518201929190602001805190602001909291908051906020019092919050505083806000806101000a81548173ffffffffffffffffffffffffffffffffffffffff021916908373ffffffffffffffffffffffffffffffffffffffff160217905550508082111580156100a65750600081115b151561011a576040517f08c379a00000000000000000000000000000000000000000000000000000000081526004018080602001828103825260178152602001807f436170616369747920697320696e737566666963656e7400000000000000000081525060200191505060405180910390fd5b8260039080519060200190610130929190610148565b508160018190555080600281905550505050506101ed565b828054600181600116156101000203166002900490600052602060002090601f016020900481019282601f1061018957805160ff19168380011785556101b7565b828001600101855582156101b7579182015b828111156101b657825182559160200191906001019061019b565b5b5090506101c491906101c8565b5090565b6101ea91905b808211156101e65760008160009055506001016101ce565b5090565b90565b61025b806101fc6000396000f300608060405260043610610057576000357c0100000000000000000000000000000000000000000000000000000000900463ffffffff1680635cfc1a511461009f578063acd00a5c146100ca578063f59e4f65146100f5575b60008060009054906101000a900473ffffffffffffffffffffffffffffffffffffffff16905060405136600082373d81368385600019f4806000811461009b573d83f35b3d83fd5b3480156100ab57600080fd5b506100b4610185565b6040518082815260200191505060405180910390f35b3480156100d657600080fd5b506100df61018b565b6040518082815260200191505060405180910390f35b34801561010157600080fd5b5061010a610191565b6040518080602001828103825283818151815260200191508051906020019080838360005b8381101561014a57808201518184015260208101905061012f565b50505050905090810190601f1680156101775780820380516001836020036101000a031916815260200191505b509250505060405180910390f35b60025481565b60015481565b60038054600181600116156101000203166002900480601f0160208091040260200160405190810160405280929190818152602001828054600181600116156101000203166002900480156102275780601f106101fc57610100808354040283529160200191610227565b820191906000526020600020905b81548152906001019060200180831161020a57829003601f168201915b5050505050815600a165627a7a72305820114371e20483bf1ab4a8c6f7fc1df31716f27f4973fb2c37cc5224faba4c70a00029",
  "source": "pragma solidity ^0.4.23;\n\nimport \"../proxy/proxy.data.sol\";\nimport \"../proxy/proxy.sol\";\nimport \"./storage.data.sol\";\n\ncontract StorageProxy is Proxy, StorageData {\n\n    constructor (address proxied, string _flavor, uint _fillAmount, uint _capacity)\n        public\n        Proxy(proxied)\n    {\n        // the body is identical to our original constructor\n        require(_fillAmount <= _capacity && _capacity > 0, \"Capacity is insufficent\");\n        flavor = _flavor;\n        fillAmount = _fillAmount;\n        capacity = _capacity;\n    }\n}",
  "sourcePath": "/Users/dennismacpro/Ascension/Solidity-Proxy-Contracts/proxy-contracts/contracts/storage/storage.proxy.sol",
  "compiler": {
    "name": "solc",
    "version": "0.4.23+commit.124ca40d.Emscripten.clang"
  },
  "schemaVersion": "3.0.2",
  "updatedAt": "2019-03-24T20:28:41.663Z",
  "devdoc": {
    "methods": {}
  },
  "userdoc": {
    "methods": {}
  }
}