{
  "contractName": "UpdatableProxyImplementation",
  "abi": [
    {
      "constant": false,
      "inputs": [
        {
          "name": "newOwner",
          "type": "address"
        }
      ],
      "name": "setOwner",
      "outputs": [],
      "payable": false,
      "stateMutability": "nonpayable",
      "type": "function"
    },
    {
      "constant": false,
      "inputs": [
        {
          "name": "newProxied",
          "type": "address"
        }
      ],
      "name": "updateProxied",
      "outputs": [],
      "payable": false,
      "stateMutability": "nonpayable",
      "type": "function"
    },
    {
      "inputs": [],
      "payable": false,
      "stateMutability": "nonpayable",
      "type": "constructor"
    }
  ],
  "bytecode": "0x608060405234801561001057600080fd5b50600080600160006101000a81548173ffffffffffffffffffffffffffffffffffffffff021916908373ffffffffffffffffffffffffffffffffffffffff160217905550506103ac806100646000396000f30060806040526004361061004c576000357c0100000000000000000000000000000000000000000000000000000000900463ffffffff16806313af403514610051578063141e74bb14610094575b600080fd5b34801561005d57600080fd5b50610092600480360381019080803573ffffffffffffffffffffffffffffffffffffffff1690602001909291905050506100d7565b005b3480156100a057600080fd5b506100d5600480360381019080803573ffffffffffffffffffffffffffffffffffffffff16906020019092919050505061022c565b005b600160009054906101000a900473ffffffffffffffffffffffffffffffffffffffff1673ffffffffffffffffffffffffffffffffffffffff163373ffffffffffffffffffffffffffffffffffffffff161415156101e8576040517f08c379a00000000000000000000000000000000000000000000000000000000081526004018080602001828103825260418152602001807f4f776e6572206164647265737320666f72207468697320636f6e74726163742081526020017f646f6573206e6f74206d6174636820746865207265636f72646564206f776e6581526020017f720000000000000000000000000000000000000000000000000000000000000081525060600191505060405180910390fd5b80600160006101000a81548173ffffffffffffffffffffffffffffffffffffffff021916908373ffffffffffffffffffffffffffffffffffffffff16021790555050565b600160009054906101000a900473ffffffffffffffffffffffffffffffffffffffff1673ffffffffffffffffffffffffffffffffffffffff163373ffffffffffffffffffffffffffffffffffffffff1614151561033d576040517f08c379a00000000000000000000000000000000000000000000000000000000081526004018080602001828103825260418152602001807f4f776e6572206164647265737320666f72207468697320636f6e74726163742081526020017f646f6573206e6f74206d6174636820746865207265636f72646564206f776e6581526020017f720000000000000000000000000000000000000000000000000000000000000081525060600191505060405180910390fd5b806000806101000a81548173ffffffffffffffffffffffffffffffffffffffff021916908373ffffffffffffffffffffffffffffffffffffffff160217905550505600a165627a7a72305820a97f44c82e1894c07289f01950e2c0347369b1fae117ebd1ef79bfb3016b099a0029",
  "source": "pragma solidity ^0.4.23;\n\nimport \"../proxy/proxy.sol\";\nimport \"./updatable.proxy.shared.sol\";\n\ncontract UpdatableProxy is Proxy, UpdatableProxyShared {\n    constructor(address proxied, address owner)\n        public\n        Proxy(proxied)\n        OwnableData(owner)\n    {}\n}\n\ncontract UpdatableProxyImplementation is UpdatableProxyShared {\n    constructor() public OwnableData(0) {}\n}",
  "sourcePath": "/Users/dennismacpro/Ascension/Solidity-Proxy-Contracts/proxy-contracts/contracts/upgradeable/updatable.proxy.sol",
  "compiler": {
    "name": "solc",
    "version": "0.4.23+commit.124ca40d.Emscripten.clang"
  },
  "schemaVersion": "3.0.2",
  "updatedAt": "2019-03-17T16:19:07.282Z",
  "devdoc": {
    "methods": {}
  },
  "userdoc": {
    "methods": {}
  }
}