{
  "contractName": "UpgradeableProxy",
  "abi": [
    {
      "constant": true,
      "inputs": [
        {
          "name": "",
          "type": "address"
        }
      ],
      "name": "initialized",
      "outputs": [
        {
          "name": "",
          "type": "bool"
        }
      ],
      "payable": false,
      "stateMutability": "view",
      "type": "function"
    },
    {
      "constant": true,
      "inputs": [],
      "name": "target",
      "outputs": [
        {
          "name": "",
          "type": "address"
        }
      ],
      "payable": false,
      "stateMutability": "view",
      "type": "function"
    },
    {
      "inputs": [
        {
          "name": "_target",
          "type": "address"
        }
      ],
      "payable": false,
      "stateMutability": "nonpayable",
      "type": "constructor"
    },
    {
      "payable": true,
      "stateMutability": "payable",
      "type": "fallback"
    },
    {
      "anonymous": false,
      "inputs": [
        {
          "indexed": true,
          "name": "newTarget",
          "type": "address"
        },
        {
          "indexed": true,
          "name": "oldTarget",
          "type": "address"
        },
        {
          "indexed": true,
          "name": "admin",
          "type": "address"
        }
      ],
      "name": "EventUpgrade",
      "type": "event"
    },
    {
      "anonymous": false,
      "inputs": [
        {
          "indexed": true,
          "name": "target",
          "type": "address"
        }
      ],
      "name": "EventInitialized",
      "type": "event"
    },
    {
      "constant": false,
      "inputs": [
        {
          "name": "_target",
          "type": "address"
        }
      ],
      "name": "upgradeTo",
      "outputs": [],
      "payable": false,
      "stateMutability": "nonpayable",
      "type": "function"
    },
    {
      "constant": false,
      "inputs": [
        {
          "name": "_target",
          "type": "address"
        },
        {
          "name": "_data",
          "type": "bytes"
        }
      ],
      "name": "upgradeTo",
      "outputs": [],
      "payable": false,
      "stateMutability": "nonpayable",
      "type": "function"
    }
  ],
  "bytecode": "0x608060405234801561001057600080fd5b506040516020806106578339810180604052810190808051906020019092919050505061004b81610051640100000000026401000000009004565b50610185565b60008173ffffffffffffffffffffffffffffffffffffffff166000809054906101000a900473ffffffffffffffffffffffffffffffffffffffff1673ffffffffffffffffffffffffffffffffffffffff16141515156100ac57fe5b6000809054906101000a900473ffffffffffffffffffffffffffffffffffffffff169050816000806101000a81548173ffffffffffffffffffffffffffffffffffffffff021916908373ffffffffffffffffffffffffffffffffffffffff1602179055503373ffffffffffffffffffffffffffffffffffffffff168173ffffffffffffffffffffffffffffffffffffffff168373ffffffffffffffffffffffffffffffffffffffff167fe79b6a8d68293faecf550170958caa9dcab36cab525137e61050eefa170dd93a60405160405180910390a45050565b6104c3806101946000396000f300608060405260043610610062576000357c0100000000000000000000000000000000000000000000000000000000900463ffffffff1680633659cfe6146100e55780636fbc15e914610128578063cbca47db146101b1578063d4b839921461020c575b6060600080368080601f01602080910402602001604051908101604052809392919081815260200183838082843782019150505050505091506000809054906101000a900473ffffffffffffffffffffffffffffffffffffffff169050600080835160208501845af43d604051816000823e82600081146100e1578282f35b8282fd5b3480156100f157600080fd5b50610126600480360381019080803573ffffffffffffffffffffffffffffffffffffffff169060200190929190505050610263565b005b34801561013457600080fd5b506101af600480360381019080803573ffffffffffffffffffffffffffffffffffffffff169060200190929190803590602001908201803590602001908080601f0160208091040260200160405190810160405280939291908181526020018383808284378201915050505050509192919290505050610397565b005b3480156101bd57600080fd5b506101f2600480360381019080803573ffffffffffffffffffffffffffffffffffffffff169060200190929190505050610452565b604051808215151515815260200191505060405180910390f35b34801561021857600080fd5b50610221610472565b604051808273ffffffffffffffffffffffffffffffffffffffff1673ffffffffffffffffffffffffffffffffffffffff16815260200191505060405180910390f35b60008173ffffffffffffffffffffffffffffffffffffffff166000809054906101000a900473ffffffffffffffffffffffffffffffffffffffff1673ffffffffffffffffffffffffffffffffffffffff16141515156102be57fe5b6000809054906101000a900473ffffffffffffffffffffffffffffffffffffffff169050816000806101000a81548173ffffffffffffffffffffffffffffffffffffffff021916908373ffffffffffffffffffffffffffffffffffffffff1602179055503373ffffffffffffffffffffffffffffffffffffffff168173ffffffffffffffffffffffffffffffffffffffff168373ffffffffffffffffffffffffffffffffffffffff167fe79b6a8d68293faecf550170958caa9dcab36cab525137e61050eefa170dd93a60405160405180910390a45050565b6103a082610263565b6000809054906101000a900473ffffffffffffffffffffffffffffffffffffffff1673ffffffffffffffffffffffffffffffffffffffff168160405180828051906020019080838360005b838110156104065780820151818401526020810190506103eb565b50505050905090810190601f1680156104335780820380516001836020036101000a031916815260200191505b50915050600060405180830381855af4915050151561044e57fe5b5050565b60016020528060005260406000206000915054906101000a900460ff1681565b6000809054906101000a900473ffffffffffffffffffffffffffffffffffffffff16815600a165627a7a72305820e73fe2274f753cb650e46bcd7d37f25cb396986be57a5375aa577c3c08fdab300029",
  "source": "pragma solidity ^0.4.23;\n\nimport \"./proxied.sol\";\n\ncontract UpgradeableProxy is Proxied{\n\n    constructor(address _target) public {\n        upgradeTo(_target);\n    }\n\n    function upgradeTo(address _target) public {\n        assert(target != _target);\n\n        address oldTarget = target;\n        target = _target;\n\n        emit EventUpgrade(_target, oldTarget, msg.sender);\n    }\n\n    function upgradeTo(address _target, bytes _data) public {\n        upgradeTo(_target);\n        assert(target.delegatecall(_data));\n    }\n\n    function () public payable {\n        bytes memory data = msg.data;\n        address impl = target;\n\n        assembly {\n            let result := delegatecall(gas, impl, add(data, 0x20), mload(data), 0, 0)\n            let size := returndatasize\n\n            let ptr := mload(0x40)\n            returndatacopy(ptr, 0, size)\n\n            switch result\n            case 0 { revert(ptr, size) }\n            default { return(ptr, size) }\n        }\n    }\n\n\n\n}",
  "sourcePath": "/Users/dennismacpro/Ascension/Solidity-Proxy-Contracts/proxy-contracts/contracts/proxy/proxy.upgradeable.sol",
  "compiler": {
    "name": "solc",
    "version": "0.4.23+commit.124ca40d.Emscripten.clang"
  },
  "schemaVersion": "3.0.2",
  "updatedAt": "2019-03-24T20:28:41.651Z",
  "devdoc": {
    "methods": {}
  },
  "userdoc": {
    "methods": {}
  }
}